:100000000C9474000C9495000C9495000C9495003D
:100010000C9495000C9495000C9495000C9495000C
:100020000C9495000C9495000C9495000C949500FC
:100030000C9495000C9495000C9495000C949500EC
:100040000C9495000C9495000C9495000C949500DC
:100050000C9495000C9495000C9495000C949500CC
:100060000C9495000C9495000C9495000C949500BC
:100070000C9495000C9495000C9495000C949500AC
:100080000C9495000C9495000C9495000C9495009C
:100090000C9495000C9495000C9495000C9495008C
:1000A0000C9495000C9495000C9495000C9495007C
:1000B0000C9495000C9495000C9495000C9495006C
:1000C0000C9495000C9495000C9495000C9495005C
:1000D0000C9495000C9495000C9495000C9495004C
:1000E0000C9495000C94970011241FBECFEFD1E221
:1000F000DEBFCDBF00E00CBF12E0A0E0B2E0EAE45A
:10010000F8E000E00BBF02C007900D92A837B107DE
:10011000D9F722E0A8E7B2E001C01D92AE37B207DE
:10012000E1F70E94D9000C9423040C940000CF93B3
:10013000C82F8A3019F48DE00E9497008091C0008A
:1001400085FFFCCFC093C60080E090E0CF9108957A
:1001500094EA9093BC009091BC0097FFFCCF282FAD
:1001600030E0220F331F2093BB0094E89093BC0033
:100170009091BC0097FFFCCF9091B900987F983187
:1001800081F41F928F931F928F938EE092E09F9342
:100190008F930E9425010F900F900F900F900F905A
:1001A0000F9084E98093BC008091BC0084FDFCCF5B
:1001B0000895809165008D7F809365001092C50041
:1001C00089E18093C4008091C0008D7F8093C0003E
:1001D00088E08093C10086E08093C20080E092E0D6
:1001E00090937B0280937A0280E28093B800D2E001
:1001F00010E282E392E00E943901C8E08C2F0E9455
:10020000A800CF5FC038D1F782E592E00E943901A3
:10021000D093B800C8E08C2F0E94A800CF5FC038F0
:10022000D1F782E792E00E9439011093B80084E888
:1002300093E02FEF3FE841E0215030404040E1F7AC
:1002400000C000000197A9F7D4CFCF93DF93CDB7BB
:10025000DEB7AE014A5F5F4FFA0161917191AF0164
:1002600080917A0290917B020E946901DF91CF9187
:1002700008950F931F93CF93DF93E0917A02F0914B
:100280007B02238121FF1BC08C01D0E0C0E0F8017C
:1002900081918F0160917A0270917B02DB01189647
:1002A000ED91FC911997882331F01995892B79F3F9
:1002B000DFEFCFEFECCF8AE01995892B19F08FEFA4
:1002C0009FEF02C08D2F9C2FDF91CF911F910F9137
:1002D00008952F923F924F925F926F927F928F92EA
:1002E0009F92AF92BF92CF92DF92EF92FF920F93C5
:1002F0001F93CF93DF93CDB7DEB72B970FB6F8944C
:10030000DEBF0FBECDBF6C017B018A01FC011782ED
:100310001682838181FFCCC1CE0101963C01F6019A
:100320009381F70193FD859193FF81917F0188234C
:1003300009F4BAC1853239F493FD859193FF819117
:100340007F01853229F4B60190E00E948903E7CF4E
:10035000912C212C312CFFE1F315D8F08B3279F060
:1003600038F4803279F08332A1F4232D20611DC04E
:100370008D3261F0803369F4232D216016C0832D06
:100380008260382EE32DE4603E2E2AC0F32DF86003
:100390001DC037FC2DC020ED280F2A3040F08E32D2
:1003A000B9F436FC81C1232D2064322E19C036FEEB
:1003B00006C08AE0989E200D1124922E11C0EAE01A
:1003C0002E9E200D1124222EF32DF0623F2E08C008
:1003D0008C3621F4832D8068382E02C0883641F493
:1003E000F70193FD859193FF81917F018111B3CF37
:1003F000982F9F7D9554933028F40C5F1F4F9FE3F7
:1004000099830DC0833631F0833771F0833509F05D
:1004100059C021C0F801808189830E5F1F4F882455
:100420008394912C530113C02801F2E04F0E511C0C
:10043000F801A080B18036FE03C0692D70E002C0D3
:100440006FEF7FEFC5010E947E034C018201F32D07
:10045000FF773F2E16C0280122E0420E511CF80102
:10046000A080B18036FE03C0692D70E002C06FEF3E
:100470007FEFC5010E9473034C01F32DF0683F2EFE
:10048000820133FC1BC0822D90E088169906B0F4DF
:10049000B60180E290E00E9489032A94F4CFF5012E
:1004A00037FC859137FE81915F01B60190E00E9493
:1004B000890321102A9421E0821A91088114910461
:1004C00071F7E8C0843611F0893641F5F80137FE3E
:1004D00007C060817181828193810C5F1F4F08C0CA
:1004E00060817181072E000C880B990B0E5F1F4FE6
:1004F000F32DFF763F2E97FF09C09095809570955C
:1005000061957F4F8F4F9F4FF0683F2E2AE030E07C
:10051000A3010E94C503882E861845C0853731F493
:10052000232D2F7EB22E2AE030E025C0932D997F17
:10053000B92E8F36C1F018F4883579F0B5C0803700
:1005400019F0883721F0B0C0E92FE061BE2EB4FE6B
:100550000DC0FB2DF460BF2E09C034FE0AC0292F48
:100560002660B22E06C028E030E005C020E130E071
:1005700002C020E132E0F801B7FE07C0608171815E
:10058000828193810C5F1F4F06C06081718180E082
:1005900090E00E5F1F4FA3010E94C503882E8618AE
:1005A000FB2DFF773F2E36FE0DC0232D2E7FA22E72
:1005B000891458F434FE0BC032FC09C0832D8E7EA2
:1005C000A82E05C0B82CA32C03C0B82C01C0B92C90
:1005D000A4FE0FC0FE01E80DF11D8081803321F4DF
:1005E0009A2D997EA92E09C0A2FE06C0B394B39499
:1005F00004C08A2D867809F0B394A3FC11C0A0FE34
:1006000006C0B21488F4280C922C9B180EC0B214A9
:1006100060F4B60180E290E00E948903B394F7CFC2
:10062000B21418F42B1802C0982C212CA4FE10C070
:10063000B60180E390E00E948903A2FE17C0A1FCEE
:1006400003C088E790E002C088E590E0B6010CC0E6
:100650008A2D867859F0A1FE02C08BE201C080E2AB
:10066000A7FC8DE2B60190E00E948903891438F45A
:10067000B60180E390E00E9489039A94F7CF8A94B0
:10068000F301E80DF11D8081B60190E00E9489031D
:100690008110F5CF222009F442CEB60180E290E02D
:1006A0000E9489032A94F6CFF6018681978102C0C1
:1006B0008FEF9FEF2B960FB6F894DEBF0FBECDBF26
:1006C000DF91CF911F910F91FF90EF90DF90CF902E
:1006D000BF90AF909F908F907F906F905F904F9062
:1006E0003F902F900895FC010590615070400110DB
:1006F000D8F7809590958E0F9F1F0895FC0161504B
:10070000704001900110D8F7809590958E0F9F1F33
:1007100008950F931F93CF93DF93FB01238121FD56
:1007200003C08FEF9FEF2CC022FF16C04681578178
:10073000248135814217530744F4A081B1819D0182
:100740002F5F3F4F318320838C93268137812F5F2A
:100750003F4F3783268314C08B01EC01FB010084DB
:10076000F185E02D1995892BE1F6D80116968D912A
:100770009C911797019617969C938E931697CE018E
:10078000DF91CF911F910F910895FA01AA27283088
:1007900051F1203181F1E8946F936E7F6E5F7F4F4E
:1007A0008F4F9F4FAF4FB1E03ED0B4E03CD0670FCA
:1007B000781F891F9A1FA11D680F791F8A1F911D1D
:1007C000A11D6A0F711D811D911DA11D20D009F46D
:1007D00068943F912AE0269F11243019305D3193AF
:1007E000DEF6CF010895462F4770405D4193B3E098
:1007F0000FD0C9F7F6CF462F4F70405D4A3318F03F
:10080000495D31FD4052419302D0A9F7EACFB4E0EF
:10081000A6959795879577956795BA95C9F70097A7
:100820006105710508959B01AC010A2E0694579548
:10083000479537952795BA95C9F7620F731F841F9F
:0A084000951FA01D0895F894FFCF46
:10084A000000000200000000970000000000466F50
:10085A00756E6420646576696365206F6E206164D5
:10086A0064726573733A20307825782028257529B3
:10087A000A005363616E6E696E67204932432062D3
:10088A00757320617420313030206B487A202E2E07
:10089A002E005363616E6E696E672049324320628F
:1008AA00757320617420343030206B487A202E2EE4
:0808BA002E00646F6E650A0058
:00000001FF
